:1000000000308A00632800000830F80000008711E3
:10001000A01120088316870000008312A20D07128A
:10002000031C182820162008831687001C2883121A
:10003000201220088316870000008312A0152008D4
:10004000831687008312871D2328F80B06280000DB
:100050008711A01120088316870000008312201644
:10006000200883168700000000008312A0152008D6
:10007000831687008312871D3B28F8010000071AAA
:1000800078148711A01120088316870083120712A5
:100090002012200883168700831208002230840073
:1000A00083130008031962280130F800F701F70BE9
:1000B0005728F80B56284A30F700F70B5D286028C0
:1000C000800B5428080003081F398300FF30A0006C
:1000D00083161F149F141F159F1107309C00831354
:1000E00003308600FF308800061183120611831644
:1000F0008611831286118316061283120612831646
:100100008612831286128316061383120613831631
:10011000861383128613A101831606148312061C0C
:100120001329831686148312861CD528FF30831664
:10013000880083120808A100201620088316870073
:1001400000008312A0152008831687000000831288
:1001500007122012200883168700000083128711DF
:10016000A01120088316870010308312A2000420FB
:100170002108A20004202012200883168700000016
:100180008312A0152008831687008312871DC628B6
:100190000000CA28000020162008831687000000EF
:1001A00064308312A2004E201329FF30831688008A
:1001B00083120808A100201620088316870000007B
:1001C0008312A015200883168700000083120712EF
:1001D0002012200883168700000083128711A011C7
:1001E00020088316870020308312A20004202108F3
:1001F000A20004202012200883168700000083122A
:10020000A0152008831687008312871D052900008A
:10021000092900002016200883168700000064309A
:0A0220008312A2004E208C28630018
:02400E00313F40
:00000001FF
;PIC16F877A
;CRC=91B1  CREATED="03-abr.-20 19:14"
